:100000000C9470010C9498010C9498010C94D20AF1
:100010000C94F60A0C941A0B0C9498010C94980109
:100020000C9498010C9498010C9498010C949801EC
:100030000C9498010C9498010C9498010C949801DC
:100040000C94EB040C9498010C940C080C944F083D
:100050000C9498010C9498010C9498010C949801BC
:100060000C9498010C94980107634236B79BD8A76B
:100070001A39685618AEBAAB558C1D3CB7CC5763CD
:10008000BD6DEDFD753EF6177231BF000000803F7B
:1000900008000000BE922449123EABAAAA2ABECD97
:1000A000CCCC4C3E00000080BEABAAAAAA3E000009
:1000B0000000BF000000803F000000000008417801
:1000C000D3BB4387D1133D190E3CC3BD4282AD2B38
:1000D0003E68EC8276BED98FE1A93E4C80EFFFBE30
:1000E00001C4FF7F3F000000000000C201000100CA
:1000F000110011000C0000E100000A00250025009D
:100100002100009600001900390039003600127AEB
:1001100000001F00460046004400807000002200DE
:100120004D004D004A00004B000036007500750080
:100130007200403800004A009C009C009900802515
:1001400000007200EC00EC00E900C0120000E900C1
:10015000DA01DA01D70160090000D701B603B6035E
:10016000B303B0040000B3036E076E076B075802B9
:1001700000006E07DC0EDC0ED80E2C010000DC0E39
:10018000C11DC11DBE1D00000007000201000003CB
:100190000406000000000000000001020408102016
:1001A0004080010204081020010204081020040409
:1001B000040404040404020202020202030303030F
:1001C00003030000000023002600290000000000B7
:1001D000250028002B0000000000240027002A0032
:1001E00000407A10F35A00A0724E18090010A5D4EE
:1001F000E80000E87648170000E40B54020000CA4B
:100200009A3B000000E1F505000080969800000090
:1002100040420F000000A0860100000010270000EF
:100220000000E803000000006400000000000A0075
:10023000000000000100000000002C76D888DC6778
:100240004F0823DFC1DFAE59E1B1B796E5E3E453D0
:10025000C63AE651997696E8E6C28426EB898C9BED
:1002600062ED407C6FFCEFBC9C9F40F2BAA56FA58D
:10027000F490055A2AF75C936B6CF9676DC11BFC0F
:10028000E0E40D47FEF520E6B500D0ED902E03002A
:10029000943577050080841E080000204E0A000077
:1002A00000C80C333333330F986E12831141EF8D36
:1002B0002114893BE65516CFFEE6DB18D1844B3876
:1002C0001BF77C1D901DA4BBE424203284725E22A7
:1002D0008100C9F124ECA1E53D27C4010D09E3012A
:1002E00011241FBECFEFD8E0DEBFCDBF11E0A0E0EC
:1002F000B1E0E0E0FBE202C005900D92A838B10742
:10030000D9F722E0A8E8B1E001C01D92AC3BB207EA
:10031000E1F712E0CEEDD2E004C02297FE010E9488
:100320006F15CA3DD107C9F70E946D070C945D0F88
:100330000C94000088E891E00E942E068FE891E07E
:100340000E942E0686E991E00E942E068DE991E03A
:100350000E942E0684EA91E00C948D0C40EC52E150
:1003600060E070E08AEC91E00E948A088AEC91E0FB
:100370000E940B098823D1F340EC52E160E070E069
:1003800084EA91E00C94BC0B20E046E065E084EA4E
:1003900091E00E948C0B62E171E08DE991E00E9496
:1003A0009C0662E171E086E991E00E949C0662E1B0
:1003B00071E08FE891E00E949C066EE071E088E8B1
:1003C00091E00C949C060C949A014F925F926F926C
:1003D0007F928F929F92AF92BF92CF92DF92EF92D5
:1003E000FF920F931F93CF93DF93CDB7DEB7C05D1E
:1003F000D1090FB6F894DEBF0FBECDBF8AEC91E0F5
:100400000E947A071816190684F48AEC91E00E947B
:10041000A307682F8FE891E00E94070763E070E070
:1004200080E090E00E945805E9CF6FE871E088E82D
:1004300091E00E941A07892B09F0B5C262E171E0D0
:100440008FE891E00E94B306E091A401F091A5012C
:100450000280F381E02D48E050E060E071E084EA42
:1004600091E0099584EA91E00E949E091816190608
:1004700084F484EA91E00E946309682F8DE991E099
:100480000E94070763E070E080E090E00E9458055A
:10049000E9CF8091A1019091A201859709F071C2E5
:1004A000CE0101967C0100E010E08091A1019091C5
:1004B000A2010817190710F5B8018DE991E00E9413
:1004C0004A07FC012081822F992787FD909534E00F
:1004D000959587953A95E1F78F709927F701918364
:1004E00080832F70822F992787FD90959383828335
:1004F0000F5F1F4FF4E0EF0EF11CD7CF5E0181E1DB
:10050000A80EB11C05E010E0C12CD12C7601F5013C
:10051000819091905F01B801882777FD8095982F91
:100520000E9479109B01AC0160E070E080E891E4EA
:100530000E9468112B013C01B401882777FD80954A
:10054000982F0E9479109B01AC01C301B2010E9457
:1005500005110E944610C60ED71EE81EF91E015056
:100560001109A8F6C701B6010E94791020E030E415
:100570004CE156E40E94DE0F8E0107531F4F24E02A
:1005800043E00E943C0F63E171E086E991E00E9444
:10059000B306B80186E991E00E94F7065E0181E2A8
:1005A000A80EB11C05E010E0C12CD12C7601F5019C
:1005B000819091905F01B801882777FD8095982FF1
:1005C0000E9479109B01AC0160E070E080E891E44A
:1005D0000E9468112B013C01B401882777FD8095AA
:1005E000982F0E9479109B01AC01C301B2010E94B7
:1005F00005110E944610C60ED71EE81EF91E0150B6
:100600001109A8F6C701B6010E94791020E030E474
:100610004CE156E40E94DE0F8E0107531F4F24E089
:1006200043E00E943C0F6CE171E086E991E00E949A
:10063000F706B80186E991E00E94F7065E0181E3C2
:10064000A80EB11C05E010E0C12CD12C7601F501FB
:10065000819091905F01B801882777FD8095982F50
:100660000E9479109B01AC0160E070E080E891E4A9
:100670000E9468112B013C01B401882777FD809509
:10068000982F0E9479109B01AC01C301B2010E9416
:1006900005110E944610C60ED71EE81EF91E015015
:1006A0001109A8F6C701B6010E94791020E030E4D4
:1006B0004CE156E40E94DE0F8E0107531F4F22E0EB
:1006C00045E00E943C0F6AE271E086E991E00E94F9
:1006D000F706B80186E991E00E94F7065E0181E421
:1006E000A80EB11C05E010E0C12CD12C7601F5015B
:1006F000819091905F01B801882777FD8095982FB0
:100700000E9479109B01AC0160E070E080E891E408
:100710000E9468112B013C01B401882777FD809568
:10072000982F0E9479109B01AC01C301B2010E9475
:1007300005110E944610C60ED71EE81EF91E015074
:100740001109A8F6C701B6010E94791020E030E433
:100750004CE156E40E94DE0F8E0107531F4F22E04A
:1007600045E00E943C0F62E371E086E991E00E945F
:10077000F706B80186E991E00E94F7065E0181E57F
:10078000A80EB11C05E010E0C12CD12C7601F501BA
:10079000819091905F01B801882777FD8095982F0F
:1007A0000E9479109B01AC0160E070E080E891E468
:1007B0000E9468112B013C01B401882777FD8095C8
:1007C000982F0E9479109B01AC01C301B2010E94D5
:1007D00005110E944610C60ED71EE81EF91E0150D4
:1007E0001109A8F6C701B6010E94791020E030E493
:1007F0004CE156E40E94DE0F8E0107531F4F24E0A8
:1008000042E00E943C0F63E471E086E991E00E94BF
:10081000F706B80186E991E00E94F7065E0181E6DD
:10082000A80EB11C05E010E0C12CD12C7601F50119
:10083000819091905F01B801882777FD8095982F6E
:100840000E9479109B01AC0160E070E080E891E4C7
:100850000E9468112B013C01B401882777FD809527
:10086000982F0E9479109B01AC01C301B2010E9434
:1008700005110E944610C60ED71EE81EF91E015033
:100880001109A8F6C701B6010E94791020E030E4F2
:100890004CE156E40E94DE0F8E0107531F4F24E007
:1008A00044E00E943C0F61E571E086E991E00E941E
:1008B000F706B80186E991E00E94F7065E0181E83B
:1008C000A80EB11C05E010E0C12CD12C7601F50179
:1008D000819091905F01B801882777FD8095982FCE
:1008E0000E9479109B01AC0160E070E080E891E427
:1008F0000E9468112B013C01B401882777FD809587
:10090000982F0E9479109B01AC01C301B2010E9493
:1009100005110E944610C60ED71EE81EF91E015092
:100920001109A8F6C701B6010E94791020E030E055
:1009300048EC52E40E94DE0F8E0107531F4F24E063
:1009400044E00E943C0F67E571E086E991E00E9477
:10095000F706B80186E991E00E94F70666E971E0C2
:100960008AEC91E00E94F70562E171E08DE991E087
:100970000E94B30662E171E086E991E00E94B3064D
:1009800012C062E171E08DE991E00E94B30662E17C
:1009900071E086E991E00E94B30663E671E08AECBB
:1009A00091E00E942C06C053DF4F0FB6F894DEBFD3
:1009B0000FBECDBFDF91CF911F910F91FF90EF90B0
:1009C000DF90CF90BF90AF909F908F907F906F906F
:1009D0005F904F9008951F920F920FB60F921124BF
:1009E0002F933F938F939F93AF93BF938091C101B8
:1009F0009091C201A091C301B091C4013091C00196
:100A000023E0230F2D3720F40196A11DB11D05C051
:100A100026E8230F0296A11DB11D2093C0018093EB
:100A2000C1019093C201A093C301B093C40180910E
:100A3000C5019091C601A091C701B091C80101966E
:100A4000A11DB11D8093C5019093C601A093C7015C
:100A5000B093C801BF91AF919F918F913F912F911A
:100A60000F900FBE0F901F9018953FB7F89480918C
:100A7000C5019091C601A091C701B091C80126B5EA
:100A8000A89B05C02F3F19F00196A11DB11D3FBFC6
:100A90006627782F892F9A2F620F711D811D911D56
:100AA00042E0660F771F881F991F4A95D1F7089576
:100AB000CF92DF92EF92FF92CF93DF936B017C0195
:100AC0000E943505EB01C114D104E104F10479F071
:100AD0000E9435056C1B7D0B683E7340A0F381E0DE
:100AE000C81AD108E108F108C851DC4FECCFDF91FA
:100AF000CF91FF90EF90DF90CF900895789484B5D8
:100B0000826084BD84B5816084BD85B5826085BD09
:100B100085B5816085BDEEE6F0E0808181608083EF
:100B2000E1E8F0E0108280818260808380818160D2
:100B30008083E0E8F0E0808181608083E1EBF0E099
:100B4000808184608083E0EBF0E08081816080833D
:100B5000EAE7F0E080818460808380818260808326
:100B60008081816080838081806880831092C10051
:100B70000895CF92DF92EF92FF920F931F93CF933E
:100B8000DF936C017A01EB01E60EF71E00E010E046
:100B9000CE15DF0561F06991D601ED91FC910190D0
:100BA000F081E02DC6010995080F191FF1CFC8018A
:100BB000DF91CF911F910F91FF90EF90DF90CF9039
:100BC00008956115710581F0DB010D900020E9F7B2
:100BD000AD0141505109461B570BDC01ED91FC91D1
:100BE0000280F381E02D099480E090E00895AF92B7
:100BF000BF92CF92DF92EF92FF920F931F93CF930A
:100C0000DF937C016B01C0E0D0E000E010E0D60192
:100C100014968D919C911597C817D90788F4D70120
:100C2000ED91FC91A080B180BE01C6010E945C07DD
:100C3000682FC701F5010995080F191F2196E7CF05
:100C4000C801DF91CF911F910F91FF90EF90DF903E
:100C5000CF90BF90AF9008950C94E105FC01808186
:100C600091810C94AD0ECF93DF93EC018881998133
:100C7000009711F00E94AD0E198218821D821C820D
:100C80001B821A82DF91CF9108950F931F93CF9308
:100C9000DF93EC018B016F5F7F4F888199810E9408
:100CA0002C0D009731F0998388831B830A8381E0A0
:100CB00001C080E0DF91CF911F910F910895CF93F4
:100CC000DF93EC0188819981892B29F08A819B81AE
:100CD0008617970760F4CE010E944506882341F0ED
:100CE0008C819D81892B19F4E881F981108281E042
:100CF000DF91CF910895EF92FF920F931F93CF93BF
:100D0000DF93EC017B018A01BA010E945F06811129
:100D100004C0CE010E94330607C01D830C83B701B7
:100D2000888199810E94720FCE01DF91CF911F912E
:100D30000F91FF90EF900895FC01118210821382B1
:100D400012821582148216826115710559F0FB0119
:100D500001900020E9F7AF0141505109461B570BA4
:100D60000C947B060895CF93DF93EC016115710518
:100D700061F0FB0101900020E9F7AF0141505109FA
:100D8000461B570B0E947B0602C00E943306CE0111
:100D9000DF91CF910895EF92FF920F931F93CF931E
:100DA000DF93EC017B010C811D816115710511F44C
:100DB00080E016C04115510591F0040F151FB801D0
:100DC0000E945F068823A1F3288139818C819D814F
:100DD000B701820F931F0E94720F1D830C8381E065
:100DE000DF91CF911F910F91FF90EF9008956115C2
:100DF000710559F0FB0101900020E9F7AF01415066
:100E00005109461B570B0C94CB0680E00895CF93F5
:100E1000DF9300D0CDB7DEB769831A8241E050E09E
:100E2000BE016F5F7F4F0E94CB060F900F90DF9146
:100E3000CF910895CF93DF93DC01ED91FC91EB010D
:100E4000A881B981309711F01097C9F4109759F023
:100E5000EB012C813D81232B31F08C9190E0919519
:100E60008195910914C0309781F0DC0114968D9121
:100E70009C911597892B49F0808190E008C0BD01B5
:100E8000CF01DF91CF910C94690F80E090E0DF916A
:100E9000CF910895FC01848195816817790720F42A
:100EA00080819181009729F41092C90189EC91E029
:100EB0000895860F971F0895FC01248135816217DC
:100EC000730748F480819181009729F0FC01E60FB7
:100ED000F71F8081089580E008950E947E050E949A
:100EE000AE01C6E4D8E00E94E5012097E1F30E943C
:100EF0004608F9CFFC0124853585F901E05CFF4FF8
:100F000080819181329620813181821B930B8F7376
:100F100099270895FC0184859585FC01E05CFF4FCD
:100F2000408151813296208131814217530741F02F
:100F30000190F081E02DE80FF91F808190E0089585
:100F40008FEF9FEF0895FC0184859585FC01E05C9F
:100F5000FF4F4081518132962081318142175307E2
:100F600079F0A081B181A80FB91F8C9120813181C6
:100F70002F5F3F4F2F7333273183208390E00895F5
:100F80008FEF9FEF0895FC0181A1882329F0A489A8
:100F9000B5898C9186FFFBCF11A20895CF93DF9383
:100FA000FC0126853785D901A05CBF4F8D919C91AE
:100FB000119701968F739927E901CE5BDF4F488126
:100FC000598184179507D9F30D90BC91A02DA20FDC
:100FD000B31F6C93A685B785A05CBF4F11969C93F9
:100FE0008E93A689B7892C9181E090E0078C02C08E
:100FF000880F991F0A94E2F7282B2C9381E081A394
:101000000488F589E02D80818064808381E090E010
:10101000DF91CF91089508951F920F920FB60F920E
:1010200011242F933F934F938F939F93EF93FF93AD
:101030008091C00082FD1CC04091C600809170026A
:101040009091710201968F739927209172023091CD
:1010500073028217930771F0E0917002F0917102B0
:10106000E05DFD4F4083909371028093700202C057
:101070008091C600FF91EF919F918F914F913F9189
:101080002F910F900FBE0F901F9018958AEC91E052
:101090000E947A07892B11F00C940B0808951F9277
:1010A0000F920FB60F9211242F933F938F939F931C
:1010B000EF93FF9320912C0230912D0280912E020C
:1010C00090912F022817390731F48091C1008F7D4C
:1010D0008093C10014C0E0912E02F0912F02E451E0
:1010E000FE4F208180912E0290912F0201968F73E6
:1010F000992790932F0280932E022093C600FF9190
:10110000EF919F918F913F912F910F900FBE0F9074
:101110001F901895CF92DF92EF92FF92CF93DF93BB
:10112000EC016A017B01411581EE580761057105EB
:10113000F9F0EC89FD8981E090E008A002C0880FF9
:10114000991F0A94E2F7808360E079E08DE390E0F4
:10115000A70196010E943715215031094109510913
:101160005695479537952795211580E1380798F0D2
:10117000EC89FD89108260E874E88EE190E0A701B7
:1011800096010E94371521503109410951095695A0
:10119000479537952795E889F9893083EA89FB894E
:1011A000208319A2EE89FF89408181E090E09C01B3
:1011B0000C8C02C0220F331F0A94E2F7422B4083AB
:1011C000EE89FF8940819C010D8C02C0220F331FE4
:1011D0000A94E2F7422B4083EE89FF8940819C010B
:1011E0000E8C02C0220F331F0A94E2F7422B408379
:1011F000EE89FF8920810F8C02C0880F991F0A9405
:10120000E2F7809582238083DF91CF91FF90EF906A
:10121000DF90CF90089581E008951092CD01109253
:10122000CC0188EE93E0A0E0B0E08093CE019093F3
:10123000CF01A093D001B093D1018CE691E09093BF
:10124000CB018093CA0180E392E09093D701809311
:10125000D6018CEE91E09093D9018093D80185EC72
:1012600090E09093DB018093DA0184EC90E090931E
:10127000DD018093DC0180EC90E09093DF018093AE
:10128000DE0181EC90E09093E1018093E00182EC3B
:1012900090E09093E3018093E20186EC90E09093DC
:1012A000E5018093E40184E08093E60183E080938C
:1012B000E70187E08093E80185E08093E90181E020
:1012C0008093EA0108952091B6023091B702281761
:1012D0003907B9F49091740280917502981789F0DA
:1012E000E0917402F0E0EA58FD4F80812091740291
:1012F00030E02F5F3F4F2F7333272093740290E02D
:1013000008958FEF9FEF08952091B6023091B702B4
:101310002817390781F4909174028091750298170B
:1013200051F0E0917402F0E0EA58FD4F8081992776
:1013300087FD909508958FEF9FEF08952091B60255
:101340003091B7022817390771F480917502209106
:10135000740290E0805C9F4F821B910960E470E012
:101360000E942315089580E090E008952091B60230
:101370003091B7022817390739F48FB7F8941092D3
:101380007502109274028FBF0895DC015196ED91A1
:10139000FC915297208150968C9180958223808376
:1013A000089520E001972FEF8F3F9207D9F7089516
:1013B0002091B6023091B7022817390789F0FC0155
:1013C000238D2E7F238F2FB7F894109275021092E1
:1013D00074029093B7028093B6022FBF81E0089504
:1013E00080E00895EF92FF920F931F93CF93DF93C6
:1013F000EC018B8DEE85FF859D8581FF04C080818A
:10140000892329F447C08081892309F043C08B894F
:101410009C890E94D10908E010E0EE24E394F12CAD
:101420008D899E890E94D109EE85FF8580819D85E9
:10143000892311F0FE2803C08E2D8095F822EE0C32
:10144000015011090115110559F78F89988D0E94D6
:10145000D1098B8D81FDF0948091750220917402E9
:1014600090E001968F73992730E08217930779F007
:10147000E0917502F0E0EA58FD4FF082809175022C
:1014800090E001968F7399278093750203C08B8D2E
:1014900081608B8FDF91CF911F910F91FF90EF9023
:1014A0000895611102C00C94C509DC015196ED91BB
:1014B000FC915297208150968C91282B208308957F
:1014C000DF92EF92FF920F931F93CF93DF93EC0184
:1014D000E62E898D9A8D892B39F481E090E09B83EB
:1014E0008A8380E090E04DC0DFB6F8946B8D6695FE
:1014F0006170CE010E94510A898D9A8D05960E94D5
:10150000D1098B8D08E010E0FF24F39481FF19C00E
:101510008F2D8E2121F0CE010E94C50904C061E00B
:10152000CE010E94510A898D9A8D0E94D109FF0C2B
:10153000015011090115110559F7CE010E94C50985
:1015400019C08F2D8E2129F061E0CE010E94510A31
:1015500003C0CE010E94C509898D9A8D0E94D109D0
:10156000FF0C015011090115110559F761E0CE0179
:101570000E94510ADFBE898D9A8D0E94D10981E0B7
:1015800090E0DF91CF911F910F91FF90EF90DF904E
:1015900008958091B6029091B702009711F00C94D3
:1015A000F20908951F920F920FB60F9211242F93F4
:1015B0003F934F935F936F937F938F939F93AF93DB
:1015C000BF93EF93FF930E94C90AFF91EF91BF91E0
:1015D000AF919F918F917F916F915F914F913F91CB
:1015E0002F910F900FBE0F901F9018951F920F9282
:1015F0000FB60F9211242F933F934F935F936F93E6
:101600007F938F939F93AF93BF93EF93FF930E942A
:10161000C90AFF91EF91BF91AF919F918F917F91F7
:101620006F915F914F913F912F910F900FBE0F904F
:101630001F9018951F920F920FB60F9211242F939F
:101640003F934F935F936F937F938F939F93AF934A
:10165000BF93EF93FF930E94C90AFF91EF91BF914F
:10166000AF919F918F917F916F915F914F913F913A
:101670002F910F900FBE0F901F9018951F93CF932F
:10168000DF93EC01162F61E0812F0E94BD0C61E019
:10169000812F0E94F60C812F90E0FC01E656FE4F50
:1016A000E491E88BFC01E255FE4FE491F0E0EE0F8F
:1016B000FF1FE453FE4F859194919A8B898BDF91A4
:1016C000CF911F9108951F93CF93DF93EC01162FB5
:1016D00060E0812F0E94BD0C8B8D81FD04C061E014
:1016E000812F0E94F60C1C87812F90E0FC01E656AA
:1016F000FE4FE491ED87FC01E255FE4FE491F0E0EE
:10170000EE0FFF1FEE53FE4F859194919F878E87BA
:10171000DF91CF911F910895FF920F931F93CF9365
:10172000DF93EC01F62E522F1B821A8208EE13E093
:1017300020E030E00C831D832E833F838CE791E013
:10174000998388831C8A1B8A1E8A1D8A188E1F8A89
:101750001A8E198E8B8D8E7F50FB81F98B8F642FA3
:10176000CE010E943E0B6F2DCE01DF91CF911F91D4
:101770000F91FF900C94630B0F931F93CF93DF9304
:10178000EC011A8E198E188E1F8A1E8A1D8AAAEEE7
:10179000B0E080E090E0FD01059115912591349134
:1017A000041715072607370709F031C02CE0289FDA
:1017B000F001299FF00D1124E251FF4F2591349142
:1017C0003C8B2B8B2CE0289FF001299FF00D1124DE
:1017D000E051FF4F259134913E8B2D8B2CE0289FBB
:1017E000F001299FF00D1124EE50FF4F2591349107
:1017F000388F2F8B2CE0289FF001299FF00D1124AA
:10180000EC50FF4F859194919A8F898F08C0019673
:101810001C968D30910509F0BECF1C8A1B8A8F89DA
:10182000988D892B09F443C08C858631E0F5209191
:101830006800883050F091E08E3008F490E081E04C
:1018400001C0880F9A95EAF701C084E0822B80934B
:1018500068002C85283038F02E3040F0263148F0D2
:10186000E0E0F0E008C0EDE6F0E005C0EBE6F0E017
:1018700002C0ECE6F0E03081283030F481E001C0B5
:10188000880F2A95EAF70DC0822F90E02E3010F4D1
:10189000089701C00E9791E001C0990F8A95EAF769
:1018A000892F832B8083898D9A8D0E94D109CE0147
:1018B000DF91CF911F910F910C94D809FC014485C1
:1018C000463150F5483028F04E3030F4EBE6F0E089
:1018D00005C0EDE6F0E002C0ECE6F0E050814830F3
:1018E00040F481E090E0042E01C0880F0A94EAF7EA
:1018F00010C0242F30E04E3018F42850310902C0B7
:101900002E50310981E090E0022E01C0880F0A9428
:10191000EAF780958523808308952CE731E0FC0168
:10192000318320830C945E0C833081F028F4813065
:1019300099F08230A1F008958630A9F08730B9F08F
:101940008430D1F4809180008F7D03C0809180002D
:101950008F7780938000089584B58F7702C084B517
:101960008F7D84BD08958091B0008F7703C08091F2
:10197000B0008F7D8093B0000895CF93DF9390E007
:10198000FC01E656FE4F2491FC01E255FE4F849186
:10199000882349F190E0880F991FFC01EA52FE4F1D
:1019A000A591B49184539E4FFC01C591D4919FB7EA
:1019B000611108C0F8948C91209582238C938881C2
:1019C00082230AC0623051F4F8948C91322F309502
:1019D00083238C938881822B888304C0F8948C9114
:1019E000822B8C939FBFDF91CF9108950F931F930C
:1019F000CF93DF931F92CDB7DEB7282F30E0F901E8
:101A0000EA57FE4F8491F901E656FE4F1491F90111
:101A1000E255FE4F04910023C9F0882321F0698329
:101A20000E94940C6981E02FF0E0EE0FFF1FE45359
:101A3000FE4FA591B4919FB7F8948C91611103C0AA
:101A40001095812301C0812B8C939FBF0F90DF9154
:101A5000CF911F910F9108956F927F928F929F92D5
:101A6000AF92BF92CF92DF92EF92FF920F931F93AC
:101A7000CF93DF93EC01CB01209781F4DF91CF91DD
:101A80001F910F91FF90EF90DF90CF90BF90AF909C
:101A90009F908F907F906F900C94150EFE01E60F33
:101AA000F71F9E0122503109E217F30708F4ACC07A
:101AB000D9010D911C91119706171707B8F0053041
:101AC000110508F49FC0A801445051094617570753
:101AD00008F498C002501109061B170B01931193CB
:101AE0006D937C93CF010E94AD0E8CC05B01A01A58
:101AF000B10A4E01800E911EA091BA02B091BB02B4
:101B0000612C712C60E070E0109709F449C0A815B1
:101B1000B905C9F5ED90FC901197670142E0C40E3C
:101B2000D11CCA14DB0478F147018A189B086401B0
:101B300042E0C40ED11C1296BC9012971396AC9141
:101B4000B5E0CB16D10440F0B282A38391828082AB
:101B5000D9018D939C9309C00E5F1F4F0E0D1F1D61
:101B6000F90111830083EB2DFA2F6115710531F016
:101B7000DB011396FC93EE93129744C0F093BB02E3
:101B8000E093BA023FC06D917C911197661677067B
:101B900008F43B01BD0112960D90BC91A02DB4CF6D
:101BA0006091B8027091B90268157905E9F4681678
:101BB0007906D0F440910801509109014115510571
:101BC00041F44DB75EB760910C0170910D01461B59
:101BD000570BE417F507C0F4F093B902E093B8028D
:101BE000F901918380830EC00E94150E7C0100973D
:101BF00059F0A801BE010E94600FCE010E94AD0EF7
:101C0000C70104C0CE0102C080E090E0DF91CF9117
:101C10001F910F91FF90EF90DF90CF90BF90AF900A
:101C20009F908F907F906F900895CF93DF93823035
:101C3000910510F482E090E0E091BA02F091BB02CD
:101C400020E030E0A0E0B0E0309739F140815181F0
:101C500048175907B8F04817590771F482819381E2
:101C6000109729F013969C938E9312972CC0909303
:101C7000BB028093BA0227C02115310531F042170B
:101C8000530718F0A901DB0101C0EF019A01BD0162
:101C9000DF010280F381E02DD7CF21153105F9F066
:101CA000281B390B2430310580F48A819B81611512
:101CB000710521F0FB019383828304C09093BB02E2
:101CC0008093BA02FE01329644C0FE01E20FF31F78
:101CD0008193919322503109398328833AC020910E
:101CE000B8023091B902232B41F420910A013091BE
:101CF0000B013093B9022093B80220910801309172
:101D000009012115310541F42DB73EB740910C0171
:101D100050910D01241B350BE091B802F091B902EE
:101D2000E217F307A0F42E1B3F0B2817390778F0B2
:101D3000AC014E5F5F4F2417350748F04E0F5F1F11
:101D40005093B9024093B8028193919302C0E0E0AE
:101D5000F0E0CF01DF91CF910895CF93DF9300970B
:101D600009F487C0FC01329713821282C091BA0233
:101D7000D091BB02209781F420813181280F391F37
:101D80008091B8029091B9028217930779F5F09388
:101D9000B902E093B8026DC0DE0120E030E0AE177A
:101DA000BF0750F412964D915C9113979D01411518
:101DB000510509F1DA01F3CFB383A2834081518148
:101DC000840F951F8A179B0771F48D919C91119731
:101DD000840F951F02969183808312968D919C911A
:101DE0001397938382832115310529F4F093BB0265
:101DF000E093BA023EC0D9011396FC93EE9312977A
:101E00004D915D91A40FB51FEA17FB0779F480810E
:101E10009181840F951F0296D90111969C938E9300
:101E20008281938113969C938E931297E0E0F0E069
:101E30008A819B81009719F0FE01EC01F9CFCE0158
:101E4000029628813981820F931F2091B802309128
:101E5000B9022817390769F4309729F41092BB02A8
:101E60001092BA0202C013821282D093B902C093B8
:101E7000B802DF91CF910895EF920F931F93CF9304
:101E8000DF93E80147FF02C034E101C034E0E42FF2
:101E9000FF27E7FDF095F7FF03C0F195E195F10904
:101EA000E32E022F2E2FAE010E94B411CE01DF913E
:101EB000CF911F910F91EF900895F8940C947315A2
:101EC000FB01DC0102C001900D9241505040D8F757
:101ED0000895FB01DC018D91019080190110D9F367
:101EE000990B0895FB01DC0101900D920020E1F7B0
:101EF00008955058BB27AA270ED04DC13ED130F0CF
:101F000043D120F031F49F3F11F41EF433C10EF49D
:101F1000E095E7FB29C1E92F4FD180F3BA1762079B
:101F200073078407950718F071F49EF567C10EF4E6
:101F3000E0950B2EBA2FA02D0B01B90190010C01D9
:101F4000CA01A0011124FF27591B99F0593F50F4F1
:101F5000503E68F11A16F040A22F232F342F442749
:101F6000585FF3CF469537952795A795F040539541
:101F7000C9F77EF41F16BA0B620B730B840BBAF011
:101F80009150A1F0FF0FBB1F661F771F881FC2F77C
:101F90000EC0BA0F621F731F841F48F48795779590
:101FA0006795B795F7959E3F08F0B3CF9395880F47
:101FB00008F09927EE0F9795879508950CD0EBC000
:101FC000E3D040F0DAD030F021F45F3F19F0CCC01C
:101FD000511115C1CFC0F0D098F39923C9F35523FF
:101FE000B1F3951B550BBB27AA276217730784070C
:101FF00038F09F5F5F4F220F331F441FAA1FA9F3C2
:1020000033D00E2E3AF0E0E830D091505040E695B3
:10201000001CCAF729D0FE2F27D0660F771F881F14
:10202000BB1F261737074807AB07B0E809F0BB0B03
:10203000802DBF01FF2793585F4F2AF09E3F510527
:1020400068F092C0DCC05F3FECF3983EDCF386950D
:1020500077956795B795F7959F5FC9F7880F911D9D
:102060009695879597F90895E1E0660F771F881F89
:10207000BB1F621773078407BA0720F0621B730B3C
:10208000840BBA0BEE1F88F7E095089504D068948E
:10209000B111B5C0089598D088F09F5790F0B92F2E
:1020A0009927B751A0F0D1F0660F771F881F991FAD
:1020B0001AF0BA95C9F712C0B13081F09FD0B1E0E3
:1020C00008959CC0672F782F8827B85F39F0B93FF3
:1020D000CCF3869577956795B395D9F73EF49095AF
:1020E0008095709561957F4F8F4F9F4F0895E8942D
:1020F00009C097FB3EF490958095709561957F4F50
:102100008F4F9F4F9923A9F0F92F96E9BB279395FD
:10211000F695879577956795B795F111F8CFFAF40D
:10212000BB0F11F460FF1BC06F5F7F4F8F4F9F4F3E
:1021300016C0882311F096E911C0772321F09EE89C
:10214000872F762F05C0662371F096E8862F70E002
:1021500060E02AF09A95660F771F881FDAF7880FDC
:102160009695879597F9089597F99F6780E870E0AD
:1021700060E008959FEF80EC089500240A941616FD
:10218000170618060906089500240A941216130665
:10219000140605060895092E0394000C11F48823F3
:1021A00052F0BB0F40F4BF2B11F460FF04C06F5F0F
:1021B0007F4F8F4F9F4F089557FD9058440F551FE5
:1021C00059F05F3F71F04795880F97FB991F61F0B9
:1021D0009F3F79F087950895121613061406551F30
:1021E000F2CF4695F1DF08C0161617061806991F9C
:1021F000F1CF86957105610508940895E894BB2791
:1022000066277727CB0197F908950BD0C4CFB5DFA8
:1022100028F0BADF18F0952309F0A6CFABCF112430
:10222000EECFCADFA0F3959FD1F3950F50E0551F75
:10223000629FF001729FBB27F00DB11D639FAA271B
:10224000F00DB11DAA1F649F6627B00DA11D661F6A
:10225000829F2227B00DA11D621F739FB00DA11D8B
:10226000621F839FA00D611D221F749F3327A00D45
:10227000611D231F849F600D211D822F762F6A2FE1
:1022800011249F5750408AF0E1F088234AF0EE0F66
:10229000FF1FBB1F661F771F881F91505040A9F773
:1022A0009E3F510570F060CFAACF5F3FECF3983EA0
:1022B000DCF3869577956795B795F795E7959F5FDA
:1022C000C1F7FE2B880F911D9695879597F9089574
:1022D000FA01EE0FFF1F30962105310599F16115C6
:1022E000710561F48038BFE39B0749F16894903829
:1022F000810561F08038BFEF9B0741F0992342F5DB
:10230000FF3FE1053105210511F1E8940894E795B7
:10231000D901AA2329F4AB2FBE2FF85FD0F310C048
:10232000FF5F70F4A695E0F7F73950F019F0FF3A27
:1023300038F49F779F930CD00F9007FC9058089526
:102340003EF018CF60E070E080E89FE308954FE72B
:102350009F775F934F933F932F93F4D22F913F91A9
:102360004F915F9152DF5BC26F927F929F92AF92CB
:10237000BF92CF92DF92EF92FF920F931F93CF9372
:10238000DF93CDB7DEB729970FB6F894DEBF0FBE47
:10239000CDBF6A01B22E102F0C3320F4FF24F3942A
:1023A000F00E02C04CE3F42E0F2D27E0AE014F5F7C
:1023B0005F4F0E9432137981272F2970213031F02D
:1023C000E1FC06C0E0FC06C060E005C06DE203C0B1
:1023D0006BE201C060E2AE2DA07173FF36C06623D0
:1023E00011F084E001C083E08B1510F4B81A01C02D
:1023F000B12CA1110BC0F6018B2D90E2882319F0AE
:1024000091938150FBCFCB0CD11CB12C662331F0C2
:10241000F601608396012F5F3F4F6901C601039665
:10242000E2FE05C02EE4F601208331E404C02EE66E
:10243000F601208331E631832283FC012B2D30E22B
:102440002223F1F131932150FBCF72FF40C066236C
:1024500011F084E001C083E08B1510F4B81A01C0BC
:10246000B12CA1110BC0F6018B2D90E2882319F03D
:1024700091938150FBCFCB0CD11CB12C662331F052
:10248000F601608396012F5F3F4F6901C6010396F5
:10249000E2FE07C029E4F60120832EE4218326E42E
:1024A00006C029E6F60120832EE6218326E6228354
:1024B000FC012B2D30E2222319F031932150FBCF68
:1024C000FC01EB0DF11D10828EEF9FEFB7C0B1E064
:1024D000611101C0B0E04B2F50E01816190624F42A
:1024E0009C012F5F3F4F02C021E030E0240F351FD9
:1024F000112329F0412F50E04F5F5F4F02C040E0B1
:1025000050E0420F531F2B2D30E04217530714F4B5
:10251000B41A01C0B12C2E2D287159F4F6012B2DBF
:1025200030E2222319F031932150FBCFCB0CD11C88
:10253000B12CBB2331F0F601608396012F5F3F4F32
:102540006901A1110BC0F6012B2D30E3222319F0F4
:1025500031932150FBCFCB0CD11CB12CF80E0A814A
:10256000372F3071A32E74FF03C0013309F4FA949E
:102570001F142CF42F2D293018F028E001C021E081
:10258000682F392F97FF02C060E030E0462F532FAD
:10259000612C712C3EE2932EBC01621B71099B01E0
:1025A000DC01A41BB50BE1E0F0E0EC0FFD1FAE0F6A
:1025B000BF1FE12EF12CF194E194F1084F3FFFEFA2
:1025C0005F0731F4F6019082B6016F5F7F4F6B01B8
:1025D000841795074CF02417350734F4BD01660DB8
:1025E000771DFB01118101C010E341505109FFEF3C
:1025F0006F1A7F0AB6016F5F7F4F4E155F0524F09B
:10260000F60110836B01DACF4817590739F4063306
:1026100020F4053319F4A11001C011E3F601108371
:10262000FB018B2D90E2882319F091938150FBCF11
:10263000FB01EB0DF11D108280E090E029960FB6B2
:10264000F894DEBF0FBECDBFDF91CF911F910F91E8
:10265000FF90EF90DF90CF90BF90AF909F907F90D2
:102660006F900895283008F027E03327DA01990F9A
:10267000311D87FD916000966105710539F4326066
:102680002E5F3D9330E32A95E1F708959F3F30F0A8
:1026900080387105610509F03C5F3C5F3D939130E6
:1026A00008F08068911DDF93CF931F930F93FF92E3
:1026B000EF92192F987F9695E92F96959695E90FA9
:1026C000FF27E65CFD4F99273327EE24FF24A7015F
:1026D000E70105900894079428F4360FE71EF81ECA
:1026E000491F511D660F771F881F991F0694A1F778
:1026F0000590079428F4E70EF81E491F561FC11DC8
:10270000770F881F991F661F0694A1F705900794FD
:1027100028F4F80E491F561FC71FD11D880F991F97
:10272000661F771F0694A1F70590079420F4490FC0
:10273000561FC71FD81F990F661F771F881F069443
:10274000A9F784911095177041F0D695C7955795C4
:102750004795F794E7941A95C1F7E0EEF1E0689495
:102760001590159135916591959105907FE273953E
:10277000E118F10A430B560BC90BD009C0F7E10C65
:10278000F11E431F561FC91FD01D7EF4703311F474
:102790008A95E6CFE894015030F0080F0AF400273C
:1027A000021708F4202F2395022F7A3328F079E3BB
:1027B0007D932A95E9F710C07D932A9589F60694B2
:1027C00097956795379517951794E118F10A430B7C
:1027D000560BC90BD00998F023957E9173957A33E7
:1027E00008F070E37C932013B8F77E9170617D93BD
:1027F00030F0839571E37D9370E32A95E1F711241E
:10280000EF90FF900F911F91CF91DF91992787FD56
:102810009095089519F40EF0A7CCF0CCABCCD4DC95
:10282000C8F39638C0F707F80F92E8942BE33AEA1A
:1028300048EB5FE7F8DC0F920F920F924DB75EB74F
:102840000F92C0D0E8E6F0E016D04F915F91EF9183
:10285000FF91E595EE1FFF1F49F0FE57E068442702
:10286000EE0F441FFA95E1F74195550B32D00F90CA
:1028700007FE26C00895DF93CF931F930F93FF9217
:10288000EF92DF927B018C01689405C0DA2EEF0194
:10289000C8DCFE01E894A5912591359145915591AB
:1028A000AEF3EF0138DBFE019701A801DA9479F766
:1028B000DF90EF90FF900F911F91CF91DF910895DE
:1028C0009B01AC0160E070E080E89FE377CB4CCCEB
:1028D000ACC07ADCE8F39923D9F3940F511DBBF314
:1028E0009150504094F059F0882332F0660F771FD2
:1028F000881F91505040C1F79E3F510544F7880F03
:10290000911D9695879597F908955F3FACF0983E95
:102910009CF0BB27869577956795B79508F4B160CD
:102920009395C1F7BB0F58F711F460FFE8CF6F5FC5
:102930007F4F8F4F9F4FE3CF62CC0EF076C01ACC03
:10294000689412CC41DCC8F39923D1F3C6F3DF932A
:10295000CF931F930F93FF92C92FDD2788232AF06F
:102960002197660F771F881FDAF720E030E040E8F4
:102970005FEB9FE3883920F0803E30F021968F771F
:10298000B9DAE0E9F0E003C0B5DAEDEBF0E073DFCF
:102990008B01BE01EC01FB2E6F5771097595771FF6
:1029A000880B990BA6DB28E132E741E35FE339DCD2
:1029B000AF2D9801AE01FF900F911F91CF91DF9144
:1029C000AADAE9CBFA01DC01AA0FBB1F9B01AC011B
:1029D000BF5728F422273327442750781FC0B75108
:1029E00088F4AB2F0024469537952795011CA395B5
:1029F000D2F3002069F0220F331F441FB395DAF39E
:102A00000DD077CA61307105A0E88A07B94630F465
:102A10009B01AC016627772788279078309621F0B4
:102A2000208331834283538308959F3F31F0915037
:102A300020F4879577956795B795880F911D9695A2
:102A4000879597F9089597FB072E16F4009407D001
:102A500077FD09D00E94591507FC05D03EF49095EA
:102A600081959F4F0895709561957F4F0895A1E2DC
:102A70001A2EAA1BBB1BFD010DC0AA1FBB1FEE1FF8
:102A8000FF1FA217B307E407F50720F0A21BB30B43
:102A9000E40BF50B661F771F881F991F1A9469F7BF
:102AA00060957095809590959B01AC01BD01CF011B
:102AB0000895AA1BBB1B51E107C0AA1FBB1FA61785
:102AC000B70710F0A61BB70B881F991F5A95A9F7D7
:102AD00080959095BC01CD010895EE0FFF1F0590E4
:102AE000F491E02D099412E0CEEDD2E004C0FE0195
:102AF0000E946F152296C03ED107C9F7F894FFCF08
:102B0000010300480008C41A0000BC02800065638D
:102B1000303100766F6C746167653A002C656C65C6
:102B200063747269636974793A002C706F776572A7
:102B30003A002C656C656374726963456E657267F3
:102B4000793A002C706F776572466163746F723AE0
:102B5000002C636F323A002C6672657175656E6386
:102B6000793A00776169740000000000CE07B9056A
:102B70007A07A3078A07C30700000000600AB905A7
:082B80009E0963098409B609EE
:00000001FF
