:100000000C945E000C94DF090C940C0A0C9486008E
:100010000C9486000C9486000C9486000C94860048
:100020000C9486000C9486000C9486000C94860038
:100030000C9486000C9486000C9486000C94860028
:100040000C94D9000C9486000C94EC030C942F04AF
:100050000C9486000C9486000C9486000C94860008
:100060000C9486000C94860000000007000201003A
:100070000003040600000000000000000102040864
:100080001020408001020408102001020408102002
:10009000040404040404040402020202020203032E
:1000A0000303030300000000250028002B000000CC
:1000B0000000240027002A00D500EB0411241FBEF5
:1000C000CFEFD8E0DEBFCDBF11E0A0E0B1E0EAE5C0
:1000D000F7E102C005900D92A431B107D9F722E0F3
:1000E000A4E1B1E001C01D92AE36B207E1F710E025
:1000F000CCEBD0E004C02297FE010E94A70BC83BC6
:10010000D107C9F70E944D030C94390A0C940000E2
:1001100040E855E260E070E086E291E00E946A0407
:1001200060E070E084E191E00E947B0561E08091F5
:1001300000010C94D001CF92DF92EF92FF9284E104
:1001400091E00E948005882359F184E191E00E94AA
:1001500098056B017C01611571058105910501F11F
:1001600061E0809100010E9409022AE030E0B701BD
:10017000A60186E291E00E943B0384E191E00E94A7
:100180008F0564EF71E080E090E00E94460160E03E
:1001900080910001FF90EF90DF90CF900C940902C6
:1001A000FF90EF90DF90CF90089584E191E00C9460
:1001B00041051F920F920FB60F9211242F933F9378
:1001C0008F939F93AF93BF9380911E0190911F01D6
:1001D000A0912001B091210130911D0123E0230F56
:1001E0002D3720F40196A11DB11D05C026E8230F6F
:1001F0000296A11DB11D20931D0180931E019093B5
:100200001F01A0932001B0932101809122019091C0
:100210002301A0912401B09125010196A11DB11DDA
:100220008093220190932301A0932401B093250190
:10023000BF91AF919F918F913F912F910F900FBEE2
:100240000F901F9018953FB7F894809122019091DC
:100250002301A0912401B091250126B5A89B05C0DA
:100260002F3F19F00196A11DB11D3FBF6627782FC2
:10027000892F9A2F620F711D811D911D42E0660F1B
:10028000771F881F991F4A95D1F70895CF92DF9263
:10029000EF92FF92CF93DF936B017C010E942301C9
:1002A000EB01C114D104E104F10479F00E942301AF
:1002B0006C1B7D0B683E7340A0F381E0C81AD10827
:1002C000E108F108C851DC4FECCFDF91CF91FF90EE
:1002D000EF90DF90CF900895789484B5826084BDCC
:1002E00084B5816084BD85B5826085BD85B581603A
:1002F00085BDEEE6F0E0808181608083E1E8F0E09A
:100300001082808182608083808181608083E0E8C8
:10031000F0E0808181608083E1EBF0E080818460A7
:100320008083E0EBF0E0808181608083EAE7F0E0A9
:10033000808184608083808182608083808181600D
:1003400080838081806880831092C100089583300B
:1003500081F028F4813099F08230A1F00895863040
:10036000A9F08730B9F08430D1F4809180008F7D7E
:1003700003C0809180008F7780938000089584B5BA
:100380008F7702C084B58F7D84BD08958091B000C1
:100390008F7703C08091B0008F7D8093B000089567
:1003A000CF93DF9390E0FC01E458FF4F2491FC01D0
:1003B000E057FF4F8491882349F190E0880F991FFF
:1003C000FC01E255FF4FA591B4918C559F4FFC0164
:1003D000C591D4919FB7611108C0F8948C91209574
:1003E00082238C93888182230AC0623051F4F8946E
:1003F0008C91322F309583238C938881822B888334
:1004000004C0F8948C91822B8C939FBFDF91CF9185
:1004100008950F931F93CF93DF931F92CDB7DEB74D
:10042000282F30E0F901E859FF4F8491F901E45891
:10043000FF4F1491F901E057FF4F04910023C9F0D9
:10044000882321F069830E94A7016981E02FF0E0F1
:10045000EE0FFF1FEC55FF4FA591B4919FB7F89495
:100460008C91611103C01095812301C0812B8C9365
:100470009FBF0F90DF91CF911F910F910895CF9261
:10048000DF92EF92FF920F931F93CF93DF936C0154
:100490007A01EB01E60EF71E00E010E0CE15DF0555
:1004A00061F06991D601ED91FC910190F081E02D10
:1004B000C6010995080F191FF1CFC801DF91CF912F
:1004C0001F910F91FF90EF90DF90CF9008956115ED
:1004D000710581F0DB010D900020E9F7AD0141507D
:1004E0005109461B570BDC01ED91FC910280F38111
:1004F000E02D099480E090E00895DC01ED91FC91FD
:100500000190F081E02D09940F931F93CF93DF9317
:10051000EC016DE00E947D028C016AE0CE010E9438
:100520007D02800F911FDF91CF911F910F91089550
:100530008F929F92AF92BF92CF92DF92EF92FF92F3
:100540000F931F93CF93DF93CDB7DEB7A1970FB66D
:10055000F894DEBF0FBECDBF7C01C42EE52FCB01CA
:10056000D22E19A221E02D1510F02AE0D22E8E01F4
:100570000F5D1F4F8D2C912CA12CB12C6C2D7E2F3B
:10058000A50194010E946D0B8C2DD29E801911241F
:10059000015011098A3014F4805D01C0895CF801B2
:1005A0008083211531054105510521F0C22EE32F2D
:1005B000CA01E4CFB801C7010E946702A1960FB635
:1005C000F894DEBF0FBECDBFDF91CF911F910F9189
:1005D000FF90EF90DF90CF90BF90AF909F908F9063
:1005E0000895CF92DF92EF92FF920F931F93CF93D4
:1005F000DF93EC016A017B012115310579F4E88173
:10060000F9810190F081E02D642FDF91CF911F914E
:100610000F91FF90EF90DF90CF9009942A30310531
:10062000E9F477FF1AC06DE20E947D028C01442735
:100630005527BA014C195D096E097F092AE0CE01E0
:100640000E949802800F911FDF91CF911F910F910F
:10065000FF90EF90DF90CF9008952AE0B701A601B8
:10066000CE01DF91CF911F910F91FF90EF90DF901E
:10067000CF900C9498020F931F93CF93DF93EC01CC
:100680000E94F1028C01CE010E948402800F911F12
:10069000DF91CF911F910F9108950E946C010E94EC
:1006A0008800C6E2D4E00E949B002097E1F30E94FC
:1006B0002604F9CFFC0124853585F901E05CFF4F64
:1006C00080819181329620813181821B930B8F73BF
:1006D00099270895FC0184859585FC01E05CFF4F16
:1006E000408151813296208131814217530741F078
:1006F0000190F081E02DE80FF91F808190E00895CE
:100700008FEF9FEF0895FC0184859585FC01E05CE7
:10071000FF4F40815181329620813181421753072A
:1007200079F0A081B181A80FB91F8C91208131810E
:100730002F5F3F4F2F7333273183208390E008953D
:100740008FEF9FEF0895FC0181A1882329F0A489F0
:10075000B5898C9186FFFBCF11A20895CF93DF93CB
:10076000FC0126853785D901A05CBF4F8D919C91F6
:10077000119701968F739927E901CE5BDF4F48816E
:10078000598184179507D9F30D90BC91A02DA20F24
:10079000B31F6C93A685B785A05CBF4F11969C9341
:1007A0008E93A689B7892C9181E090E0078C02C0D6
:1007B000880F991F0A94E2F7282B2C9381E081A3DC
:1007C0000488F589E02D80818064808381E090E059
:1007D000DF91CF91089508951F920F920FB60F9257
:1007E00011242F933F934F938F939F93EF93FF93F6
:1007F0008091C00082FD1CC04091C6008091CC0158
:100800009091CD0101968F7399272091CE0130915F
:10081000CF018217930771F0E091CC01F091CD01E7
:10082000E457FE4F40839093CD018093CC0102C0EA
:100830008091C600FF91EF919F918F914F913F91D1
:100840002F910F900FBE0F901F90189586E291E0A8
:100850000E945A03892B11F00C94EB0308951F9208
:100860000F920FB60F9211242F933F938F939F9364
:10087000EF93FF93209188013091890180918A0143
:1008800090918B012817390731F48091C1008F7D39
:100890008093C10014C0E0918A01F0918B01E85B64
:1008A000FE4F208180918A0190918B0101968F7378
:1008B000992790938B0180938A012093C600FF9122
:1008C000EF919F918F913F912F910F900FBE0F90BD
:1008D0001F901895CF92DF92EF92FF92CF93DF9304
:1008E000EC016A017B01411581EE58076105710534
:1008F000F9F0EC89FD8981E090E008A002C0880F42
:10090000991F0A94E2F7808360E079E08DE390E03C
:10091000A70196010E946D0B21503109410951092F
:100920005695479537952795211580E1380798F01A
:10093000EC89FD89108260E874E88EE190E0A701FF
:1009400096010E946D0B21503109410951095695BC
:10095000479537952795E889F9893083EA89FB8996
:10096000208319A2EE89FF89408181E090E09C01FB
:100970000C8C02C0220F331F0A94E2F7422B4083F3
:10098000EE89FF8940819C010D8C02C0220F331F2C
:100990000A94E2F7422B4083EE89FF8940819C0153
:1009A0000E8C02C0220F331F0A94E2F7422B4083C1
:1009B000EE89FF8920810F8C02C0880F991F0A944D
:1009C000E2F7809582238083DF91CF91FF90EF90B3
:1009D000DF90CF900895109229011092280188EE9F
:1009E00093E0A0E0B0E080932A0190932B01A093C4
:1009F0002C01B0932D0188E091E090932701809322
:100A000026018CE891E0909333018093320188E4D1
:100A100091E0909335018093340185EC90E09093C0
:100A200037018093360184EC90E0909339018093F4
:100A3000380180EC90E090933B0180933A0181EC87
:100A400090E090933D0180933C0182EC90E0909384
:100A50003F0180933E0186EC90E0909341018093AA
:100A6000400184E08093420183E08093430187E06A
:100A70008093440185E08093450181E080934601A5
:100A80000895FC018FEF9FEF938382832EE531E081
:100A9000358324832AE030E03783268321E02087D2
:100AA000918380838CE390E0909303018093020113
:100AB0001092660210926702109268021092690208
:100AC0000895FC01808191818F3FFFEF9F0791F096
:100AD00010926602109267021092680210926902E8
:100AE000109265021092640241E050E06CE379E0FC
:100AF0000C94BF090895FC01718360830C94610517
:100B000081E04091660250916702609168027091A5
:100B10006902452B462B472B09F480E0089510927B
:100B2000660210926702109268021092690208959C
:100B300060916602709167028091680290916902EB
:100B400008952F923F924F925F926F927F928F9271
:100B50009F92AF92BF92CF92DF92EF92FF920F934C
:100B60001F93CF93DF93CDB7DEB760970FB6F8949E
:100B7000DEBF0FBECDBF1C018091DA019091DB0179
:100B80006FE170E00E94590B8B014B01A12CB12C3D
:100B9000A0910201B09103019B010E949E0B0E9453
:100BA000680A2AE037ED43E25CE30E94F60A0E94FD
:100BB0003C0A6B017C019801A3E0B0E00E948F0B1E
:100BC0009B01AC012C193D094E095F092D833E8321
:100BD0004F83588726013701460E571E681E791E1F
:100BE00021E030E080E090E0DC01B501A4014C1987
:100BF0005D096E097F0949875A876B877C87B70132
:100C0000A601480D591D6A1D7B1D4D875E876F87A4
:100C1000788B2215330508F073C0F901EE0FFF1F22
:100C2000E652FE4F0190F081E02D4F01A12CB12C36
:100C3000C984DA84EB84FC84C814D904EA04FB0474
:100C400028F54D855E856F85788984169506A606FC
:100C5000B706E0F4F901EE0FFF1FE452FE4FE0800B
:100C6000F180A70160E070E049835A836B837C8345
:100C7000CD80DE80EF80F884C416D506E606F70640
:100C800028F4441555056605770570F14D815E81A0
:100C90006F817885481559056A057B0550F58414E0
:100CA0009504A604B70428F5F901EE0FFF1FE452DE
:100CB000FE4F0190F081E02D4F01A12CB12CC98491
:100CC000DA84EB84FC84C814D904EA04FB0488F4B5
:100CD0004D855E856F85788984169506A606B706CC
:100CE00040F40196A11DB11D880F991FAA1FBB1FBB
:100CF00004C0910180E090E0DC012E5F3F4F89CF7E
:100D0000B695A7959795879557E025163104C0F0BD
:100D10008093660290936702A0936802B093690281
:100D200036942794309265022092640210936302F5
:100D30000093620221E030E0309361022093600270
:100D400021E0892B8A2B8B2B09F420E0822F6096DF
:100D50000FB6F894DEBF0FBECDBFDF91CF911F91CC
:100D60000F91FF90EF90DF90CF90BF90AF909F904A
:100D70008F907F906F905F904F903F902F9008954D
:100D80002F923F924F925F926F927F928F929F929B
:100D9000AF92BF92CF92DF92EF92FF920F931F9389
:100DA000CF93DF93CDB7DEB760970FB6F894DEBF71
:100DB0000FBECDBF1C018091DA019091DB016AE08A
:100DC00070E00E94590B8B016B01E12CF12CA0917A
:100DD0000201B09103019B010E949E0B0E94680AD0
:100DE0002AE037ED43E25CE30E94F60A0E943C0AE7
:100DF00046015701880C991CAA1CBB1CA501940133
:100E0000261B370B480B590B2D873E874F87588B76
:100E10009B01AC01280D391D4A1D5B1D2D833E83AE
:100E20004F83588721E030E019821A821B821C828E
:100E300046015701861A970AA80AB90A4D815E81B0
:100E40006F8178854C195D096E097F096A017B0104
:100E50002215330508F07CC0F901EE0FFF1FE652A2
:100E6000FE4F0190F081E02D2F01612C712C841434
:100E70009504A604B70460F54C145D046E047F0469
:100E800038F5F901EE0FFF1FE452FE4F408151810A
:100E9000BA0180E090E069877A878B879C87DC01C4
:100EA000CB014D855E856F857889481759076A079C
:100EB0007B0770F44D815E816F817885841795077B
:100EC000A607B70728F469817A818B819C812FC09E
:100ED0008D859E85AF85B88984159505A605B705CE
:100EE00078F54D815E816F817885441655066606DA
:100EF000770630F5F901EE0FFF1FE452FE4F019027
:100F0000F081E02D2F01612C712C84149504A6042E
:100F1000B704B0F44C145D046E047F0488F4698156
:100F20007A818B819C816F5F7F4F8F4F9F4F660FC0
:100F3000771F881F991F69837A838B839C8305C0E1
:100F4000910119821A821B821C822E5F3F4F80CF33
:100F500089819A81AB81BC81B695A7959795879534
:100F600077E027163104C0F0809366029093670201
:100F7000A0936802B0936902369427943092650278
:100F800020926402109363020093620222E030E038
:100F9000309361022093600221E0892B8A2B8B2BF6
:100FA00009F420E0822F60960FB6F894DEBF0FBEE2
:100FB000CDBFDF91CF911F910F91FF90EF90DF9008
:100FC000CF90BF90AF909F908F907F906F905F90E9
:100FD0004F903F902F9008952F923F924F925F92A3
:100FE0006F927F928F929F92AF92BF92CF92DF9239
:100FF000EF92FF920F931F93CF93DF93CDB7DEB79E
:101000006C970FB6F894DEBF0FBECDBF8C018091F8
:10101000DA019091DB0167E470E00E94590B1B013B
:10102000A0910201B09103019B010E949E0B0E94BE
:10103000680A2AE037ED43E25CE30E94F60A0E9468
:101040003C0A6B017C01C101A0E0B0E052E0880FD6
:10105000991FAA1FBB1F5A95D1F74C015D018C182F
:101060009D08AE08BF0889829A82AB82BC82B70114
:10107000A601480F591F6A1F7B1F4D835E836F8334
:1010800078879101ABE0B0E00E948F0B4B015C01CF
:101090008C189D08AE08BF0889869A86AB86BC86E8
:1010A00046015701860E971EA81EB91E8D869E8684
:1010B000AF86B88AA9E0B0E00E948F0B4B015C01BB
:1010C0008C189D08AE08BF08898A9A8AAB8ABC8AA8
:1010D00046015701860E971EA81EB91E8D8A9E8A4C
:1010E000AF8AB88EA6E0B0E00E948F0B9B01AC01E6
:1010F0002C193D094E095F09298F3A8F4B8F5C8F60
:10110000C60ED71EE81EF91E21E030E080E090E018
:10111000DC012017310708F070C0F901EE0FFF1F46
:10112000E652FE4F408151812A01612C712C498188
:101130005A816B817C81441555056605770520F53C
:101140008D809E80AF80B884481459046A047B0463
:10115000D8F4F901EE0FFF1FE452FE4F4081518198
:1011600060E070E089849A84AB84BC848416950620
:10117000A606B70648F48D849E84AF84B8884815C7
:1011800059056A057B0568F149895A896B897C890B
:10119000441555056605770548F58D889E88AF8806
:1011A000B88C481459046A047B0400F5F901EE0F69
:1011B000FF1FE452FE4F408151812A01612C712CA6
:1011C000498D5A8D6B8D7C8D4415550566057705C7
:1011D00068F44C145D046E047F0440F40196A11D74
:1011E000B11D880F991FAA1FBB1F04C0980180E082
:1011F00090E0DC012E5F3F4F8CCFB695A795979579
:10120000879507301105C0F08093660290936702BE
:10121000A0936802B0936902169507951093650232
:1012200000936402309263022092620223E030E075
:10123000309361022093600221E0892B8A2B8B2B53
:1012400009F420E0822F6C960FB6F894DEBF0FBE33
:10125000CDBFDF91CF911F910F91FF90EF90DF9065
:10126000CF90BF90AF909F908F907F906F905F9046
:101270004F903F902F900895CF92DF92EF92FF9280
:101280000F931F93CF93DF930E9423016B017C0187
:101290008091D6019091D7018601081B190B1093FC
:1012A000D5010093D401093883E11807C0F180917A
:1012B000DA019091DB019C01285C3109201731078C
:1012C00050F588539F4F0817190728F58091D201D0
:1012D0009091D30101969093D3018093D201C09154
:1012E000D001D091D1012197D093D101C093D001E9
:1012F000029789F4CE010E94A105811108C0CE0198
:101300000E94C006811103C0CE010E94EC0710921A
:10131000D3011092D2011092D1011092D00180918C
:10132000D0019091D1018334910540F01092D10108
:101330001092D0011092D3011092D201E091D0010D
:10134000F091D101CF0101969093D1018093D0010A
:10135000EE0FFF1FE652FE4F11830083C092D601AD
:10136000D092D701E092D801F092D901DF91CF91CC
:101370001F910F91FF90EF90DF90CF9008958230F2
:10138000E8F4E82FF0E0EE0FFF1FE659FD4F718300
:101390006083813041F0809169008C7F842B809341
:1013A0006900E89A089580916900440F551F440F21
:1013B000551F837F842B80936900E99A08951F92BB
:1013C0000F920FB60F9211242F933F934F935F9379
:1013D0006F937F938F939F93AF93BF93EF93FF93FD
:1013E00080916A0290916B02892B29F0E0916A0248
:1013F000F0916B020995FF91EF91BF91AF919F9191
:101400008F917F916F915F914F913F912F910F90AD
:101410000FBE0F901F9018951F920F920FB60F924C
:1014200011242F933F934F935F936F937F938F93E9
:101430009F93AF93BF93EF93FF9380916C02909132
:101440006D02892B29F0E0916C02F0916D020995F3
:10145000FF91EF91BF91AF919F918F917F916F918C
:101460005F914F913F912F910F900FBE0F901F9062
:101470001895F8940C94AB0B98D088F09F5790F087
:10148000B92F9927B751A0F0D1F0660F771F881FA9
:10149000991F1AF0BA95C9F712C0B13081F09FD0E8
:1014A000B1E008959CC0672F782F8827B85F39F086
:1014B000B93FCCF3869577956795B395D9F73EF408
:1014C00090958095709561957F4F8F4F9F4F0895B0
:1014D000E89409C097FB3EF49095809570956195CE
:1014E0007F4F8F4F9F4F9923A9F0F92F96E9BB2784
:1014F0009395F695879577956795B795F111F8CF00
:10150000FAF4BB0F11F460FF1BC06F5F7F4F8F4F6A
:101510009F4F16C0882311F096E911C0772321F060
:101520009EE8872F762F05C0662371F096E8862FF8
:1015300070E060E02AF09A95660F771F881FDAF74F
:10154000880F9695879597F9089597F99F6780E892
:1015500070E060E008959FEF80EC089500240A9405
:101560001616170618060906089500240A9412167E
:101570001306140605060895092E0394000C11F4B1
:10158000882352F0BB0F40F4BF2B11F460FF04C05E
:101590006F5F7F4F8F4F9F4F089557FD9058440FB7
:1015A000551F59F05F3F71F04795880F97FB991FC2
:1015B00061F09F3F79F0879508951216130614067F
:1015C000551FF2CF4695F1DF08C01616170618060C
:1015D000991FF1CF86957105610508940895E894E7
:1015E000BB2766277727CB0197F908950BD0C4CF87
:1015F000B5DF28F0BADF18F0952309F0A6CFABCFFE
:101600001124EECFCADFA0F3959FD1F3950F50E0E0
:10161000551F629FF001729FBB27F00DB11D639FA4
:10162000AA27F00DB11DAA1F649F6627B00DA11D4A
:10163000661F829F2227B00DA11D621F739FB00DF0
:10164000A11D621F839FA00D611D221F749F332760
:10165000A00D611D231F849F600D211D822F762FF9
:101660006A2F11249F5750408AF0E1F088234AF0F6
:10167000EE0FFF1FBB1F661F771F881F9150504042
:10168000A9F79E3F510570F060CFAACF5F3FECF302
:10169000983EDCF3869577956795B795F795E7952E
:1016A0009F5FC1F7FE2B880F911D9695879597F93F
:1016B0000895AA1BBB1B51E107C0AA1FBB1FA61799
:1016C000B70710F0A61BB70B881F991F5A95A9F7EB
:1016D00080959095BC01CD010895A1E21A2EAA1B18
:1016E000BB1BFD010DC0AA1FBB1FEE1FFF1FA217D2
:1016F000B307E407F50720F0A21BB30BE40BF50BCF
:10170000661F771F881F991F1A9469F76095709557
:10171000809590959B01AC01BD01CF010895A29FDA
:10172000B001B39FC001A39F700D811D1124911DB5
:10173000B29F700D811D1124911D08950E948F0B81
:10174000B7FF0895821B930B0895EE0FFF1F0590BE
:0A175000F491E02D0994F894FFCF06
:10175A000D003C0000000000AE033F025A03830361
:04176A006A03A30368
:00000001FF
