:100000000C94B2000C94DA000C94DA000C943007D3
:100010000C9454070C9478070C94DA000C94DA00D2
:100020000C94DA000C94DA000C94DA000C94DA00E8
:100030000C94DA000C94DA000C94DA000C94DA00D8
:100040000C9444010C94DA000C946A040C94AD04F2
:100050000C94DA000C94DA000C94DA000C94DA00B8
:100060000C94DA000C94DA0000C2010001001100C7
:1000700011000C0000E100000A002500250021000D
:10008000009600001900390039003600127A00008D
:100090001F004600460044008070000022004D0012
:1000A0004D004A00004B00003600750075007200DC
:1000B000403800004A009C009C0099008025000008
:1000C0007200EC00EC00E900C0120000E900DA0167
:1000D000DA01D70160090000D701B603B603B30304
:1000E000B0040000B3036E076E076B0758020000F0
:1000F0006E07DC0EDC0ED80E2C010000DC0EC11DDC
:10010000C11DBE1D0000000700020100000304061F
:1001100000000000000000000102040810204080E0
:100120000102040810200102040810200404040441
:100130000404040402020202020203030303030391
:100140000000000023002600290000000000250018
:1001500028002B0000000000240027002A00FE00D9
:100160006B05110111241FBECFEFD8E0DEBFCDBF5C
:1001700011E0A0E0B1E0E6E2F8E102C005900D92E6
:10018000AC34B107D9F722E0ACE4B1E001C01D9274
:10019000A137B207E1F711E0C2E6D1E004C022972F
:1001A000FE010E94020CCE35D107C9F70E94CB0395
:1001B0000C949A0B0C9400008CE491E00E94C6020F
:1001C00083E591E00E94C6028AE591E00C94EB0879
:1001D00040EC52E160E070E08FE791E00E94E804BB
:1001E0008FE791E00E9469058823D1F340EC52E14A
:1001F00060E070E08AE591E00C941A0820E046E0A7
:1002000065E08AE591E00E94EA0761E171E083E53B
:1002100091E00E94340366E071E08CE491E00C947C
:1002200034030C94DC008FE791E00E94D803181689
:10023000190654F48FE791E00E940104682F83E5CA
:1002400091E00E947703EFCF6BE071E08FE791E0E0
:100250000E94850263E571E08FE791E00E94A202AF
:1002600063E571E08CE491E00E948A03892B31F010
:1002700062E171E08FE791E00E94B40268EE73E002
:1002800080E090E00C94B1011F920F920FB60F9294
:1002900011242F933F938F939F93AF93BF9380919C
:1002A000770190917801A0917901B0917A01309114
:1002B000760123E0230F2D3720F40196A11DB11DF7
:1002C00005C026E8230F0296A11DB11D20937601DB
:1002D0008093770190937801A0937901B0937A018C
:1002E00080917B0190917C01A0917D01B0917E0174
:1002F0000196A11DB11D80937B0190937C01A09379
:100300007D01B0937E01BF91AF919F918F913F91FD
:100310002F910F900FBE0F901F9018953FB7F89434
:1003200080917B0190917C01A0917D01B0917E0133
:1003300026B5A89B05C02F3F19F00196A11DB11D40
:100340003FBF6627782F892F9A2F620F711D811D5D
:10035000911D42E0660F771F881F991F4A95D1F7BC
:100360000895CF92DF92EF92FF92CF93DF936B01CC
:100370007C010E948E01EB01C114D104E104F1045F
:1003800079F00E948E016C1B7D0B683E7340A0F3D8
:1003900081E0C81AD108E108F108C851DC4FECCF60
:1003A000DF91CF91FF90EF90DF90CF9008957894F8
:1003B00084B5826084BD84B5816084BD85B582606A
:1003C00085BD85B5816085BDEEE6F0E08081816008
:1003D0008083E1E8F0E01082808182608083808108
:1003E00081608083E0E8F0E0808181608083E1EBE0
:1003F000F0E0808184608083E0EBF0E080818160C8
:100400008083EAE7F0E0808184608083808182607D
:100410008083808181608083808180688083109266
:10042000C1000895CF92DF92EF92FF920F931F9336
:10043000CF93DF936C017A01EB01E60EF71E00E02B
:1004400010E0CE15DF0561F06991D601ED91FC91C8
:100450000190F081E02DC6010995080F191FF1CF19
:10046000C801DF91CF911F910F91FF90EF90DF9026
:10047000CF9008956115710581F0DB010D9000208A
:10048000E9F7AD0141505109461B570BDC01ED91D5
:10049000FC910280F381E02D099480E090E00895C2
:1004A000AF92BF92CF92DF92EF92FF920F931F9382
:1004B000CF93DF937C016B01C0E0D0E000E010E05F
:1004C000D60114968D919C911597C817D90788F479
:1004D000D701ED91FC91A080B180BE01C6010E94C0
:1004E000BA03682FC701F5010995080F191F219656
:1004F000E7CFC801DF91CF911F910F91FF90EF904F
:10050000DF90CF90BF90AF9008950C943A02DC0139
:10051000ED91FC910190F081E02D09940F931F93D0
:10052000CF93DF93EC016DE00E9487028C016AE0BB
:10053000CE010E948702800F911FDF91CF911F9102
:100540000F9108950F931F93CF93DF93EC010E94B7
:1005500050028C01CE010E948E02800F911FDF910C
:10056000CF911F910F9108950F931F93CF93DF9316
:10057000EC010E943A028C01CE010E948E02800F93
:10058000911FDF91CF911F910F910895FC01808100
:1005900091810C940B0BCF93DF93EC0188819981AF
:1005A000009711F00E940B0B198218821D821C8289
:1005B0001B821A82DF91CF9108950F931F93CF93DF
:1005C000DF93EC018B016F5F7F4F888199810E94DF
:1005D0008A09009731F0998388831B830A8381E01D
:1005E00001C080E0DF91CF911F910F910895CF93CB
:1005F000DF93EC0188819981892B29F08A819B8185
:100600008617970760F4CE010E94DD02882341F02F
:100610008C819D81892B19F4E881F981108281E018
:10062000DF91CF910895EF92FF920F931F93CF9395
:10063000DF93EC017B018A01BA010E94F70281116C
:1006400004C0CE010E94CB0207C01D830C83B701FA
:10065000888199810E94AF0BCE01DF91CF911F91CC
:100660000F91FF90EF900895FC0111821082138288
:1006700012821582148216826115710559F0FB01F0
:1006800001900020E9F7AF0141505109461B570B7B
:100690000C9413030895EF92FF920F931F93CF933F
:1006A000DF93EC017B010C811D816115710511F453
:1006B00080E016C04115510591F0040F151FB801D7
:1006C0000E94F7028823A1F3288139818C819D81C2
:1006D000B701820F931F0E94AF0B1D830C8381E033
:1006E000DF91CF911F910F91FF90EF900895CF93DD
:1006F000DF9300D0CDB7DEB769831A8241E050E0C6
:10070000BE016F5F7F4F0E944B030F900F90DF91F0
:10071000CF910895CF93DF93DC01ED91FC91EB0134
:10072000A881B981309711F01097C9F4109759F04A
:10073000EB012C813D81232B31F08C9190E0919540
:100740008195910914C0309781F0DC0114968D9148
:100750009C911597892B49F0808190E008C0BD01DC
:10076000CF01DF91CF910C94A60B80E090E0DF9158
:10077000CF910895FC01248135816217730748F4F5
:1007800080819181009729F0FC01E60FF71F80819D
:10079000089580E008950E94D7010E94E800C4EA0D
:1007A000D4E00E9413012097E1F30E94A404F9CF42
:1007B000FC0124853585F901E05CFF4F8081918142
:1007C000329620813181821B930B8F739927089574
:1007D000FC0184859585FC01E05CFF4F40815181DF
:1007E0003296208131814217530741F00190F08108
:1007F000E02DE80FF91F808190E008958FEF9FEFC3
:100800000895FC0184859585FC01E05CFF4F4081E3
:1008100051813296208131814217530779F0A081AE
:10082000B181A80FB91F8C91208131812F5F3F4F7B
:100830002F7333273183208390E008958FEF9FEF4C
:100840000895FC0181A1882329F0A489B5898C91A0
:1008500086FFFBCF11A20895CF93DF93FC0126857D
:100860003785D901A05CBF4F8D919C91119701965E
:100870008F739927E901CE5BDF4F48815981841737
:100880009507D9F30D90BC91A02DA20FB31F6C93C7
:10089000A685B785A05CBF4F11969C938E93A689C1
:1008A000B7892C9181E090E0078C02C0880F991FD6
:1008B0000A94E2F7282B2C9381E081A30488F58920
:1008C000E02D80818064808381E090E0DF91CF9192
:1008D000089508951F920F920FB60F9211242F932F
:1008E0003F934F938F939F93EF93FF938091C0001B
:1008F00082FD1CC04091C600809125029091260285
:1009000001968F7399272091270230912802821730
:10091000930771F0E0912502F0912602EB51FE4F12
:100920004083909326028093250202C08091C600E6
:10093000FF91EF919F918F914F913F912F910F9048
:100940000FBE0F901F9018958FE791E00E94D8037B
:10095000892B11F00C94690408951F920F920FB621
:100960000F9211242F933F938F939F93EF93FF93B5
:100970002091E1013091E2018091E3019091E40145
:100980002817390731F48091C1008F7D8093C10011
:1009900014C0E091E301F091E401EF55FE4F208196
:1009A0008091E3019091E40101968F7399279093D0
:1009B000E4018093E3012093C600FF91EF919F91A2
:1009C0008F913F912F910F900FBE0F901F90189510
:1009D000CF92DF92EF92FF92CF93DF93EC016A0107
:1009E0007B01411581EE580761057105F9F0EC892D
:1009F000FD8981E090E008A002C0880F991F0A9449
:100A0000E2F7808360E079E08DE390E0A701960152
:100A10000E94CA0B21503109410951095695479549
:100A200037952795211580E1380798F0EC89FD89E5
:100A3000108260E874E88EE190E0A70196010E94C0
:100A4000CA0B2150310941095109569547953795EF
:100A50002795E889F9893083EA89FB89208319A2DF
:100A6000EE89FF89408181E090E09C010C8C02C0FE
:100A7000220F331F0A94E2F7422B4083EE89FF894D
:100A800040819C010D8C02C0220F331F0A94E2F7B3
:100A9000422B4083EE89FF8940819C010E8C02C06D
:100AA000220F331F0A94E2F7422B4083EE89FF891D
:100AB00020810F8C02C0880F991F0A94E2F780955D
:100AC00082238083DF91CF91FF90EF90DF90CF90D2
:100AD000089581E00895109282011092810188EEBC
:100AE00093E0A0E0B0E08093830190938401A09311
:100AF0008501B09386018FE291E09093800180930D
:100B00007F0185EE91E090938C0180938B0181EAC7
:100B100091E090938E0180938D0185EC90E090930D
:100B2000900180938F0184EC90E0909392018093E8
:100B3000910180EC90E0909394018093930181EC7B
:100B400090E0909396018093950182EC90E09093D1
:100B500098018093970186EC90E090939A0180939E
:100B6000990184E080939B0183E080939C0187E05E
:100B700080939D0185E080939E0181E080939F0199
:100B8000089520916B0230916C0228173907B9F44F
:100B90009091290280912A02981789F0E091290208
:100BA000F0E0E55DFD4F80812091290230E02F5F6C
:100BB0003F4F2F7333272093290290E008958FEF42
:100BC0009FEF089520916B0230916C02281739072E
:100BD00081F49091290280912A02981751F0E091B6
:100BE0002902F0E0E55DFD4F8081992787FD909512
:100BF00008958FEF9FEF089520916B0230916C0262
:100C00002817390771F480912A022091290290E077
:100C1000805C9F4F821B910960E470E00E94B60BDC
:100C2000089580E090E0089520916B0230916C026D
:100C30002817390739F48FB7F89410922A021092C6
:100C400029028FBF0895DC015196ED91FC915297D6
:100C5000208150968C91809582238083089520E096
:100C600001972FEF8F3F9207D9F7089520916B02DC
:100C700030916C022817390789F0FC01238D2E7FF3
:100C8000238F2FB7F89410922A0210922902909382
:100C90006C0280936B022FBF81E0089580E008957D
:100CA000EF92FF920F931F93CF93DF93EC018B8D05
:100CB000EE85FF859D8581FF04C08081892329F40D
:100CC00047C08081892309F043C08B899C890E9499
:100CD0002F0608E010E0EE24E394F12C8D899E8924
:100CE0000E942F06EE85FF8580819D85892311F066
:100CF000FE2803C08E2D8095F822EE0C01501109BC
:100D00000115110559F78F89988D0E942F068B8D3B
:100D100081FDF09480912A022091290290E00196B1
:100D20008F73992730E08217930779F0E0912A02B8
:100D3000F0E0E55DFD4FF08280912A0290E001969F
:100D40008F73992780932A0203C08B8D81608B8FCC
:100D5000DF91CF911F910F91FF90EF900895611156
:100D600002C00C942306DC015196ED91FC91529740
:100D7000208150968C91282B20830895DF92EF924A
:100D8000FF920F931F93CF93DF93EC01E62E898D93
:100D90009A8D892B39F481E090E09B838A8380E0EF
:100DA00090E04DC0DFB6F8946B8D66956170CE0112
:100DB0000E94AF06898D9A8D05960E942F068B8D15
:100DC00008E010E0FF24F39481FF19C08F2D8E21DD
:100DD00021F0CE010E94230604C061E0CE010E94F2
:100DE000AF06898D9A8D0E942F06FF0C01501109C4
:100DF0000115110559F7CE010E94230619C08F2D48
:100E00008E2129F061E0CE010E94AF0603C0CE0121
:100E10000E942306898D9A8D0E942F06FF0C015097
:100E200011090115110559F761E0CE010E94AF06C5
:100E3000DFBE898D9A8D0E942F0681E090E0DF91C0
:100E4000CF911F910F91FF90EF90DF9008958091C7
:100E50006B0290916C02009711F00C94500608956B
:100E60001F920F920FB60F9211242F933F934F931F
:100E70005F936F937F938F939F93AF93BF93EF9302
:100E8000FF930E942707FF91EF91BF91AF919F9130
:100E90008F917F916F915F914F913F912F910F9023
:100EA0000FBE0F901F9018951F920F920FB60F92C2
:100EB00011242F933F934F935F936F937F938F935F
:100EC0009F93AF93BF93EF93FF930E942707FF91E8
:100ED000EF91BF91AF919F918F917F916F915F91B2
:100EE0004F913F912F910F900FBE0F901F9018952B
:100EF0001F920F920FB60F9211242F933F934F938F
:100F00005F936F937F938F939F93AF93BF93EF9371
:100F1000FF930E942707FF91EF91BF91AF919F919F
:100F20008F917F916F915F914F913F912F910F9092
:100F30000FBE0F901F9018951F93CF93DF93EC0176
:100F4000162F61E0812F0E941B0961E0812F0E9412
:100F50005409812F90E0FC01E85EFE4FE491E88B9C
:100F6000FC01E45DFE4FE491F0E0EE0FFF1FE65B55
:100F7000FE4F859194919A8B898BDF91CF911F9130
:100F800008951F93CF93DF93EC01162F60E0812F1C
:100F90000E941B098B8D81FD04C061E0812F0E949E
:100FA00054091C87812F90E0FC01E85EFE4FE4911C
:100FB000ED87FC01E45DFE4FE491F0E0EE0FFF1FD2
:100FC000E05CFE4F859194919F878E87DF91CF9152
:100FD0001F910895FF920F931F93CF93DF93EC011E
:100FE000F62E522F1B821A8208EE13E020E030E02A
:100FF0000C831D832E833F838FE391E09983888345
:101000001C8A1B8A1E8A1D8A188E1F8A1A8E198EA8
:101010008B8D8E7F50FB81F98B8F642FCE010E94C8
:101020009C076F2DCE01DF91CF911F910F91FF9003
:101030000C94C1070F931F93CF93DF93EC011A8E8B
:10104000198E188E1F8A1E8A1D8AA8E6B0E080E0DD
:1010500090E0FD0105911591259134910417150734
:101060002607370709F031C02CE0289FF001299F9F
:10107000F00D1124E459FF4F259134913C8B2B8BBB
:101080002CE0289FF001299FF00D1124E259FF4F19
:10109000259134913E8B2D8B2CE0289FF001299FC8
:1010A000F00D1124E059FF4F25913491388F2F8B8B
:1010B0002CE0289FF001299FF00D1124EE58FF4FDE
:1010C000859194919A8F898F08C001961C968D30D6
:1010D000910509F0BECF1C8A1B8A8F89988D892BB8
:1010E00009F443C08C858631E0F520916800883092
:1010F00050F091E08E3008F490E081E001C0880F5C
:101100009A95EAF701C084E0822B809368002C85D1
:10111000283038F02E3040F0263148F0E0E0F0E0A2
:1011200008C0EDE6F0E005C0EBE6F0E002C0ECE65A
:10113000F0E03081283030F481E001C0880F2A953A
:10114000EAF70DC0822F90E02E3010F4089701C00E
:101150000E9791E001C0990F8A95EAF7892F832BAA
:101160008083898D9A8D0E942F06CE01DF91CF91C9
:101170001F910F910C943606FC014485463150F5C1
:10118000483028F04E3030F4EBE6F0E005C0EDE6F4
:10119000F0E002C0ECE6F0E05081483040F481E03D
:1011A00090E0042E01C0880F0A94EAF710C0242FA3
:1011B00030E04E3018F42850310902C02E50310969
:1011C00081E090E0022E01C0880F0A94EAF7809532
:1011D0008523808308952FE331E0FC013183208350
:1011E0000C94BC08833081F028F4813099F082306F
:1011F000A1F008958630A9F08730B9F08430D1F499
:10120000809180008F7D03C0809180008F778093D4
:101210008000089584B58F7702C084B58F7D84BD2A
:1012200008958091B0008F7703C08091B0008F7DCA
:101230008093B0000895CF93DF9390E0FC01E85EC7
:10124000FE4F2491FC01E45DFE4F8491882349F117
:1012500090E0880F991FFC01EC5AFE4FA591B491C4
:10126000865B9E4FFC01C591D4919FB7611108C068
:10127000F8948C91209582238C93888182230AC0D4
:10128000623051F4F8948C91322F309583238C93F3
:101290008881822B888304C0F8948C91822B8C9354
:1012A0009FBFDF91CF9108950F931F93CF93DF934B
:1012B0001F92CDB7DEB7282F30E0F901EC5FFE4F6B
:1012C0008491F901E85EFE4F1491F901E45DFE4F4F
:1012D00004910023C9F0882321F069830E94F20859
:1012E0006981E02FF0E0EE0FFF1FE65BFE4FA59156
:1012F000B4919FB7F8948C91611103C0109581232C
:1013000001C0812B8C939FBF0F90DF91CF911F91D4
:101310000F9108956F927F928F929F92AF92BF929A
:10132000CF92DF92EF92FF920F931F93CF93DF93B1
:10133000EC01CB01209781F4DF91CF911F910F91A8
:10134000FF90EF90DF90CF90BF90AF909F908F90E5
:101350007F906F900C94730AFE01E60FF71F9E01B9
:1013600022503109E217F30708F4ACC0D9010D91FE
:101370001C91119706171707B8F00530110508F4EE
:101380009FC0A801445051094617570708F498C058
:1013900002501109061B170B019311936D937C9357
:1013A000CF010E940B0B8CC05B01A01AB10A4E0149
:1013B000800E911EA0916F02B0917002612C712C71
:1013C00060E070E0109709F449C0A815B905C9F5A7
:1013D000ED90FC901197670142E0C40ED11CCA1435
:1013E000DB0478F147018A189B08640142E0C40ECF
:1013F000D11C1296BC9012971396AC91B5E0CB1607
:10140000D10440F0B282A38391828082D9018D936E
:101410009C9309C00E5F1F4F0E0D1F1DF901118314
:101420000083EB2DFA2F6115710531F0DB01139666
:10143000FC93EE93129744C0F0937002E0936F0216
:101440003FC06D917C9111976616770608F43B01B9
:10145000BD0112960D90BC91A02DB4CF60916D028C
:1014600070916E0268157905E9F468167906D0F472
:1014700040910001509101014115510541F44DB7D2
:101480005EB76091040170910501461B570BE4178C
:10149000F507C0F4F0936E02E0936D02F9019183B9
:1014A00080830EC00E94730A7C01009759F0A80146
:1014B000BE010E949D0BCE010E940B0BC70104C010
:1014C000CE0102C080E090E0DF91CF911F910F919B
:1014D000FF90EF90DF90CF90BF90AF909F908F9054
:1014E0007F906F900895CF93DF938230910510F431
:1014F00082E090E0E0916F02F091700220E030E035
:10150000A0E0B0E0309739F1408151814817590788
:10151000B8F04817590771F482819381109729F028
:1015200013969C938E9312972CC090937002809385
:101530006F0227C02115310531F04217530718F00B
:10154000A901DB0101C0EF019A01BD01DF010280A9
:10155000F381E02DD7CF21153105F9F0281B390B88
:101560002430310580F48A819B816115710521F059
:10157000FB019383828304C09093700280936F0277
:10158000FE01329644C0FE01E20FF31F8193919356
:1015900022503109398328833AC020916D0230915D
:1015A0006E02232B41F4209102013091030130930C
:1015B0006E0220936D0220910001309101012115EE
:1015C000310541F42DB73EB740910401509105011A
:1015D000241B350BE0916D02F0916E02E217F307C8
:1015E000A0F42E1B3F0B2817390778F0AC014E5F93
:1015F0005F4F2417350748F04E0F5F1F50936E0260
:1016000040936D028193919302C0E0E0F0E0CF013E
:10161000DF91CF910895CF93DF93009709F487C0AE
:10162000FC01329713821282C0916F02D091700236
:10163000209781F420813181280F391F80916D021C
:1016400090916E028217930779F5F0936E02E09302
:101650006D026DC0DE0120E030E0AE17BF0750F430
:1016600012964D915C9113979D014115510509F119
:10167000DA01F3CFB383A28340815181840F951F98
:101680008A179B0771F48D919C911197840F951F78
:1016900002969183808312968D919C9113979383E8
:1016A00082832115310529F4F0937002E0936F02D3
:1016B0003EC0D9011396FC93EE9312974D915D9124
:1016C000A40FB51FEA17FB0779F480819181840F7D
:1016D000951F0296D90111969C938E9382819381D6
:1016E00013969C938E931297E0E0F0E08A819B81A1
:1016F000009719F0FE01EC01F9CFCE010296288186
:101700003981820F931F20916D0230916E0228174C
:10171000390769F4309729F41092700210926F0221
:1017200002C013821282D0936E02C0936D02DF91C9
:10173000CF910895F8940C94060CFB01DC0102C0D3
:1017400001900D9241505040D8F70895FB01DC0103
:101750008D91019080190110D9F3990B0895FB0127
:10176000DC0101900D920020E1F7089597FB072E10
:1017700016F4009407D077FD09D00E94EC0B07FC0B
:1017800005D03EF4909581959F4F08957095619591
:101790007F4F0895A1E21A2EAA1BBB1BFD010DC0AD
:1017A000AA1FBB1FEE1FFF1FA217B307E407F50711
:1017B00020F0A21BB30BE40BF50B661F771F881FED
:1017C000991F1A9469F760957095809590959B0183
:1017D000AC01BD01CF010895AA1BBB1B51E107C09D
:1017E000AA1FBB1FA617B70710F0A61BB70B881FB1
:1017F000991F5A95A9F780959095BC01CD01089540
:10180000EE0FFF1F0590F491E02D099411E0C2E660
:10181000D1E004C0FE010E94020C2296C436D1071A
:06182000C9F7F894FFCFA8
:101826000000710280006563303100526561643AE0
:101836002000636F6D70617265546F28292069738B
:10184600207465737420646F6E6500000000002CC0
:10185600041202D8030104E803210400000000BEBC
:0C186600061202FC05C105E20514060094
:00000001FF
